:020000040800F2
:1000000070040020050100088D070008090700089A
:100010008B0700083D060008F90B000800000000EF
:10002000000000000000000000000000310A00088D
:100030003F060008000000008F070008DD0A0008E6
:100040001F0100081F0100081F0100081F01000810
:100050001F0100081F0100081F0100081F01000800
:100060001F0100081F0100081F0100081F010008F0
:100070001F0100081F0100081F0100081F010008E0
:100080001F0100081F0100081F0100081F010008D0
:100090001F0100081F0100081F0100081F010008C0
:1000A0001F0100081F0100081F0100081F010008B0
:1000B0001F0100081F0100081F0100081F010008A0
:1000C0001F0100081F0100081F0100081F01000890
:1000D0001F0100081F0100081F0100081F01000880
:1000E0001F0100081F0100081F010008DFF810D0E1
:1000F00000F0FEF9004800473D0C0008AFF3008017
:10010000700400200648804706480047FEE7FEE7E7
:10011000FEE7FEE7FEE7FEE7FEE7FEE7FEE7FEE7B7
:10012000E10A0008ED00000880EA010210B502F0C3
:100130000043400022D04A001FD0010E01EB1261A3
:10014000C0F35600C2F3560240F4000042F400022D
:10015000A0FB022000047F39140400D0401C50EAA8
:10016000124001D44000491EC2B20C0604EBD0106C
:10017000401C4008802A02D003E0002010BD20F07F
:100180000100002900DA0020184310BD2DE9FE4FC0
:1001900081EA030404F0004421F0004100944FF090
:1001A000000B23F0004350EA01045ED052EA03043E
:1001B0005BD0C3F30A54C1F30A552C44A4F2F334C0
:1001C0000194A0FB0254C1F3130141F48011C3F365
:1001D000130343F4801301FB024400FB034E840A23
:1001E000970A44EA815447EA8357A4FB07680295BB
:1001F0008D0A05FB07854FEA932C04FB0C54270559
:10020000029D4FEA065847EA1637B5EB08056EEB34
:10021000070C870E920E47EA811742EA8312A7FB6A
:100220000201B6EB0B0164EB00042B0D43EA0C3327
:100230005E1844EB1C50DA465146E7FB0201C5F359
:1002400013044FEA0B3343EA14534FEA0432019C80
:1002500043EA0603A4F10C040294009CCDE900B427
:1002600000F0F8F803B0BDE8F08F00200146F9E790
:100270002DE9F04D81EA030404F0004B21F0004524
:1002800014464FF0000A23F0004150EA050220D046
:1002900054EA01021DD0C5F30A570246C5F3130301
:1002A000C1F31300C1F30A5640F4801543F48013E0
:1002B000A7EB0608101BD64608F2FD3873EB0500C5
:1002C00002D308F1010801E092185B41B8F1000F78
:1002D00003DA00200146BDE8F08D00204FF48011C4
:1002E000064684460EE0171B73EB050705D3121B69
:1002F00063EB050306434CEA010C49084FEA300062
:1003000092185B4150EA0107EDD152EA030012D086
:1003100082EA040083EA0501084305D0101BAB41C3
:1003200006D20122002306E000224FF0004302E043
:100330006FF0010253101AEB06004CEB085110EB62
:100340000A0041EB0B01BDE8F04D00F074B80EB5AA
:1003500040F2334102910021CDE900110A460B46DB
:1003600000F078F803B000BD20F00040C10DC0F3EC
:10037000160040F400007F2901DA0020704796291A
:1003800003DCC1F19601C840704796398840704738
:1003900001F0004330B421F0004150EA010206D0E0
:1003A0000A0DA2F56072C1F31301002A02DC30BC11
:1003B00000207047440F44EAC104C100E01830BC7B
:1003C00000EBC250AFF300800029A8BF7047401C6B
:1003D000490008BF20F00100704710B4B0FA80FC5B
:1003E00000FA0CF050EA010404BF10BC704749B198
:1003F000CCF1200421FA04F411FA0CF118BF012108
:1004000021430843A3EB0C01CB1D4FEA00614FEAE7
:10041000102042BF002010BC704700EBC3501044B6
:100420000029A4BF10BC7047401C490008BF20F041
:10043000010010BC704710B5141E73F1000408DAF7
:10044000401C41F1000192185B411A4301D120F098
:10045000010010BD2DE9F04D92469B4611B1B1FA55
:1004600081F202E0B0FA80F22032904600F052F8B9
:1004700004460F4640EA0A0041EA0B0153465A4639
:10048000084313D0114653EA010019D0C8F14002C5
:10049000504600F04EF805460E4650465946424634
:1004A00000F038F8084305D0012004E02046394622
:1004B000BDE8F08D0020054346EAE0762C43374343
:1004C0000A986305E40AA0EB08000022FD0A44EA4A
:1004D00047540A3002D500200146E9E7010510190A
:1004E0006941DDE9084500196941BDE8F04DA2E721
:1004F000064C074D06E0E06840F0010394E8070071
:1005000098471034AC42F6D3FFF7F4FDB40D000861
:10051000D40D0008202A04DB203A00FA02F1002062
:1005200070479140C2F1200320FA03F31943904031
:100530007047202A04DB203A21FA02F0002170479C
:1005400021FA02F3D040C2F120029140084319463B
:10055000704700002DE9F041164D4FF480560024FD
:100560003146284600F0CCF82F153946284600F0D1
:10057000C0F80028F9D1FC2000F0EEF9002000F0CE
:10058000EBF9012000F0E8F9FF2000F0E5F944EA7A
:100590000044FF2000F0E0F944EA0024FF2000F0CE
:1005A000DBF904433146284600F0ACF82046BDE8AC
:1005B000F0810000000C01402DE9F041104D88460B
:1005C00004464FF480563146284600F099F82F151E
:1005D0003946284600F08DF80028F9D104F00F00C4
:1005E00040F0500000F0B8F9002000F0B5F94046A6
:1005F00000F0B2F931462846BDE8F04100F082B87B
:10060000000C014010B506210020FFF7D5FF0021A6
:100610000220FFF7D1FFE0210320FFF7CDFF0021EB
:10062000BDE810400420FFF7C7BF10B50146012008
:10063000FFF7C2FFBDE81040FFF78CBFFEE7704731
:1006400001B5009801E0401E00900028FBD108BDD4
:10065000F0B5CA78002502F00F03D20601D58A78DA
:1006600013430A784FF00F0E12F0FF0F4FF0010204
:100670001CD004680F8802FA05F63740B74211D142
:100680004FEA850C0EFA0CF724EA070703FA0CF47C
:100690003C43CF78282F02D0482F02D002E0466199
:1006A00000E006616D1C082DE4D304600C88FF2C6B
:1006B0001ED944685FF0000606F1080702FA07F544
:1006C0000F882F40AF420FD14FEA860C0EFA0CF77D
:1006D000BC4303FA0CF73C43CF78282F00D1456187
:1006E000CF78482F00D10561761C082EE4D34460F2
:1006F000F0BD0246002092680A4200D001207047F7
:100700004161704701617047FEE70000F8B50121C3
:10071000082000F049F84FF40064ADF800401020C4
:100720008DF803000D4E03258DF8025069463046C2
:10073000FFF78EFF21463046FFF7E2FF6010ADF86D
:10074000000048208DF803008DF8025069463046BD
:10075000FFF77EFF00F07CF8F8BD0000000C0140C0
:100760001FB54FF4E13000900020ADF80400ADF863
:100770000600ADF80800ADF80C000C20ADF80A003A
:100780006946002000F002F91FBDFEE77047704780
:10079000044A0029D16901D0014300E08143D161BD
:1007A0007047000000100240044A0029916901D0FE
:1007B000014300E081439161704700000010024056
:1007C00030B51F494A6812F00C031E4A03D0042BAF
:1007D00001D0082B21D002604A680F231A4C03EA8B
:1007E0001212A35C0268DA4042604B68072505EAF2
:1007F0001323E35C22FA03F383604B6805EAD323F7
:10080000E35CDA40C2604968032303EA9131231FA5
:10081000595CB2FBF1F1016130BD4A684B6802F4EA
:1008200070124FF0020413F4803F04EB924202D0A6
:100830004B689B0301D5054B00E0024B5A43CAE7C6
:100840000010024000127A001400002000093D0050
:1008500070B586B001210820FFF7A6FF01218803AB
:10086000FFF796FF4FF46040ADF8140003248DF8B5
:10087000164018201D4E8DF8170005A93046FFF7C9
:10088000E7FEB514ADF814508DF8164010208DF821
:10089000170005A93046FFF7DBFE29463046FFF773
:1008A00031FF0020ADF800004FF48271ADF8021066
:1008B0000121ADF808104902ADF80A103821ADF851
:1008C0000C10ADF80400ADF80600ADF80E000720DE
:1008D000074CADF810006946204600F020F80121D1
:1008E000204600F007F806B070BD0000000C014083
:1008F000003800400029018802D041F0400101E0A9
:1009000021F04001018070470246002012890A420E
:1009100000D001207047808970478181704730B5D1
:1009200002884C8802F441530A88CD8822438C887F
:100930002C4322430C8922434C8922438C89224335
:10094000CC8922431A430280828B22F40062828384
:10095000098A018230BD000070B50B4C05460221AA
:100960002046FFF7D1FF0028F9D029462046FFF79F
:10097000D4FF01212046FFF7C7FF0028F9D0204609
:10098000FFF7C9FFC0B270BD00380040F8B50E4691
:10099000044625492448083150F8240051F8241011
:1009A000084340F001000121FFF7FEFE1E48083811
:1009B0009CB350F824000121FFF7EAFE18208DF8BF
:1009C000030019486946183830F81400ADF80000E3
:1009D00003208DF80200154850F82400FFF738FE78
:1009E00004208DF8030010486946143830F81400CC
:1009F000ADF800000D48083050F82400FFF728FE3D
:100A00000A4D3146083D55F8240000F09BF855F892
:100A10002400012100F084F8F8BDFFE700680121FF
:100A2000FFF7C2FECAE70000240D00082C000020DA
:100A3000704700000CB50021264801910091026822
:100A400042F4803202604FF4A063026802F4003284
:100A50000092019A521C0192009A12B9019A9A428C
:100A6000F3D10268920333D5012100911A490A6833
:100A700042F010020A600A6822F003020A600A6863
:100A800042F002020A604168416041684160416889
:100A900041F480614160416821F47C11416041680A
:100AA00041F4E8114160016841F080710160016822
:100AB0008901FCD5416821F003014160416841F0A2
:100AC000020141604168C1F381010229FAD10CBDE4
:100AD00000910CBD00100240002002407047000051
:100AE0000C48016841F00101016041680A4A114067
:100AF00041600168094A11400160016821F48021C8
:100B00000160416821F4FE0141604FF41F018160E2
:100B1000FFF790BF001002400000FFF8FFFFF6FE55
:100B20000029818902D041F4005101E021F40051F3
:100B3000818170470246002012880A4200D00120BD
:100B40007047000030B50446008A85B00D464CF66B
:100B5000FF710840E98801432182A1894EF6F31014
:100B60000140A8882A8910436A890A431043A0815A
:100B7000A08A4FF6FF410840A9890143A182684637
:100B8000FFF71EFE1948844201D1039800E0029845
:100B9000A189090400EBC00101EB0010296801D50F
:100BA000490000E08900B0FBF1F06422B0FBF2F1F3
:100BB00009010B096FF018056B4300EB8300A38953
:100BC0001D044FF0320306D503EBC000B0FBF2F07A
:100BD00000F0070005E003EB0010B0FBF2F000F0BE
:100BE0000F000843208105B030BD000000380140EF
:100BF000C1F3080181807047FEE702E008C8121FB8
:100C000008C1002AFAD170477047002001E001C1F5
:100C1000121F002AFBD170474FF0E0210A6922F031
:100C200004020A61C10804484FF47A72016089B273
:100C30005143416070470000080000202048FFF742
:100C4000EBFFFFF78DFDFFF761FD1E48FFF7F8FC96
:100C50004FF400611C48FFF755FDFFF7D3FC1B4C18
:100C600055201B4E1B4FDFF870802070A51E4FF4DF
:100C70007A790820FFF7D9FC010204D5C043C0F3FC
:100C80001600401C4042FFF762FB00223346FFF78C
:100C90007DFA00223B46FFF7EBFAFFF779FB41466E
:100CA000FFF742FAFFF760FB2880010A6170A0702D
:100CB0000321064800F012F84846FFF7C1FCD8E7C8
:100CC00000A24A04FFFF0100000C014002000020C6
:100CD000D012E33F80842E4100401C462DE9F041B4
:100CE0000E4607460024084D0AE0395D2846FFF706
:100CF0007FFF40212846FFF71DFF0028F9D0641C24
:100D0000B442F2DBBDE8F08100380140000204008B
:100D100000040800400080000001000200400000C4
:100D200000000200040000000400000004000000B5
:100D3000040000008000000080000000800000002F
:100D40008000000001000020000100200040008021
:100D500008008000040000001000000000010000F6
:100D60000001000000010000000100002000000060
:100D70000001000001000020000100200040008070
:100D800008008000000002000600060006000600C1
:100D90000300060000000D0008000D000E000F000B
:100DA000030007000600280017002800280028007C
:100DB00009001700D40D0008000000206C0000009E
:100DC000FA0B0008400E00086C000020040400002C
:100DD0000A0C0008000000000000000000000000F5
:100DE00000000000020406080000000001020304E5
:100DF00001020304060708090038014000440040CE
:100E000000080140000801400008014000080140BE
:100E1000001C0140001C0140001C0140001C01405E
:100E20000008014000100140002001400020014066
:100E3000002001400020014000140140002001403A
:04000005080000ED02
:00000001FF
